{
  "contractName": "ArtToken",
  "abi": [
    {
      "inputs": [],
      "stateMutability": "nonpayable",
      "type": "constructor"
    },
    {
      "anonymous": false,
      "inputs": [
        {
          "indexed": true,
          "internalType": "address",
          "name": "owner",
          "type": "address"
        },
        {
          "indexed": true,
          "internalType": "address",
          "name": "approved",
          "type": "address"
        },
        {
          "indexed": true,
          "internalType": "uint256",
          "name": "tokenId",
          "type": "uint256"
        }
      ],
      "name": "Approval",
      "type": "event"
    },
    {
      "anonymous": false,
      "inputs": [
        {
          "indexed": true,
          "internalType": "address",
          "name": "owner",
          "type": "address"
        },
        {
          "indexed": true,
          "internalType": "address",
          "name": "operator",
          "type": "address"
        },
        {
          "indexed": false,
          "internalType": "bool",
          "name": "approved",
          "type": "bool"
        }
      ],
      "name": "ApprovalForAll",
      "type": "event"
    },
    {
      "anonymous": false,
      "inputs": [
        {
          "indexed": true,
          "internalType": "address",
          "name": "from",
          "type": "address"
        },
        {
          "indexed": true,
          "internalType": "address",
          "name": "to",
          "type": "address"
        },
        {
          "indexed": true,
          "internalType": "uint256",
          "name": "tokenId",
          "type": "uint256"
        }
      ],
      "name": "Transfer",
      "type": "event"
    },
    {
      "inputs": [
        {
          "internalType": "uint256",
          "name": "",
          "type": "uint256"
        }
      ],
      "name": "Items",
      "outputs": [
        {
          "internalType": "uint256",
          "name": "id",
          "type": "uint256"
        },
        {
          "internalType": "address",
          "name": "creator",
          "type": "address"
        },
        {
          "internalType": "string",
          "name": "uri",
          "type": "string"
        }
      ],
      "stateMutability": "view",
      "type": "function",
      "constant": true
    },
    {
      "inputs": [
        {
          "internalType": "address",
          "name": "to",
          "type": "address"
        },
        {
          "internalType": "uint256",
          "name": "tokenId",
          "type": "uint256"
        }
      ],
      "name": "approve",
      "outputs": [],
      "stateMutability": "nonpayable",
      "type": "function"
    },
    {
      "inputs": [
        {
          "internalType": "address",
          "name": "owner",
          "type": "address"
        }
      ],
      "name": "balanceOf",
      "outputs": [
        {
          "internalType": "uint256",
          "name": "",
          "type": "uint256"
        }
      ],
      "stateMutability": "view",
      "type": "function",
      "constant": true
    },
    {
      "inputs": [
        {
          "internalType": "uint256",
          "name": "tokenId",
          "type": "uint256"
        }
      ],
      "name": "getApproved",
      "outputs": [
        {
          "internalType": "address",
          "name": "",
          "type": "address"
        }
      ],
      "stateMutability": "view",
      "type": "function",
      "constant": true
    },
    {
      "inputs": [
        {
          "internalType": "address",
          "name": "owner",
          "type": "address"
        },
        {
          "internalType": "address",
          "name": "operator",
          "type": "address"
        }
      ],
      "name": "isApprovedForAll",
      "outputs": [
        {
          "internalType": "bool",
          "name": "",
          "type": "bool"
        }
      ],
      "stateMutability": "view",
      "type": "function",
      "constant": true
    },
    {
      "inputs": [],
      "name": "marketplace",
      "outputs": [
        {
          "internalType": "address",
          "name": "",
          "type": "address"
        }
      ],
      "stateMutability": "view",
      "type": "function",
      "constant": true
    },
    {
      "inputs": [],
      "name": "name",
      "outputs": [
        {
          "internalType": "string",
          "name": "",
          "type": "string"
        }
      ],
      "stateMutability": "view",
      "type": "function",
      "constant": true
    },
    {
      "inputs": [
        {
          "internalType": "uint256",
          "name": "tokenId",
          "type": "uint256"
        }
      ],
      "name": "ownerOf",
      "outputs": [
        {
          "internalType": "address",
          "name": "",
          "type": "address"
        }
      ],
      "stateMutability": "view",
      "type": "function",
      "constant": true
    },
    {
      "inputs": [
        {
          "internalType": "address",
          "name": "from",
          "type": "address"
        },
        {
          "internalType": "address",
          "name": "to",
          "type": "address"
        },
        {
          "internalType": "uint256",
          "name": "tokenId",
          "type": "uint256"
        }
      ],
      "name": "safeTransferFrom",
      "outputs": [],
      "stateMutability": "nonpayable",
      "type": "function"
    },
    {
      "inputs": [
        {
          "internalType": "address",
          "name": "from",
          "type": "address"
        },
        {
          "internalType": "address",
          "name": "to",
          "type": "address"
        },
        {
          "internalType": "uint256",
          "name": "tokenId",
          "type": "uint256"
        },
        {
          "internalType": "bytes",
          "name": "_data",
          "type": "bytes"
        }
      ],
      "name": "safeTransferFrom",
      "outputs": [],
      "stateMutability": "nonpayable",
      "type": "function"
    },
    {
      "inputs": [
        {
          "internalType": "address",
          "name": "operator",
          "type": "address"
        },
        {
          "internalType": "bool",
          "name": "approved",
          "type": "bool"
        }
      ],
      "name": "setApprovalForAll",
      "outputs": [],
      "stateMutability": "nonpayable",
      "type": "function"
    },
    {
      "inputs": [
        {
          "internalType": "bytes4",
          "name": "interfaceId",
          "type": "bytes4"
        }
      ],
      "name": "supportsInterface",
      "outputs": [
        {
          "internalType": "bool",
          "name": "",
          "type": "bool"
        }
      ],
      "stateMutability": "view",
      "type": "function",
      "constant": true
    },
    {
      "inputs": [],
      "name": "symbol",
      "outputs": [
        {
          "internalType": "string",
          "name": "",
          "type": "string"
        }
      ],
      "stateMutability": "view",
      "type": "function",
      "constant": true
    },
    {
      "inputs": [
        {
          "internalType": "uint256",
          "name": "index",
          "type": "uint256"
        }
      ],
      "name": "tokenByIndex",
      "outputs": [
        {
          "internalType": "uint256",
          "name": "",
          "type": "uint256"
        }
      ],
      "stateMutability": "view",
      "type": "function",
      "constant": true
    },
    {
      "inputs": [
        {
          "internalType": "address",
          "name": "owner",
          "type": "address"
        },
        {
          "internalType": "uint256",
          "name": "index",
          "type": "uint256"
        }
      ],
      "name": "tokenOfOwnerByIndex",
      "outputs": [
        {
          "internalType": "uint256",
          "name": "",
          "type": "uint256"
        }
      ],
      "stateMutability": "view",
      "type": "function",
      "constant": true
    },
    {
      "inputs": [],
      "name": "totalSupply",
      "outputs": [
        {
          "internalType": "uint256",
          "name": "",
          "type": "uint256"
        }
      ],
      "stateMutability": "view",
      "type": "function",
      "constant": true
    },
    {
      "inputs": [
        {
          "internalType": "address",
          "name": "from",
          "type": "address"
        },
        {
          "internalType": "address",
          "name": "to",
          "type": "address"
        },
        {
          "internalType": "uint256",
          "name": "tokenId",
          "type": "uint256"
        }
      ],
      "name": "transferFrom",
      "outputs": [],
      "stateMutability": "nonpayable",
      "type": "function"
    },
    {
      "inputs": [
        {
          "internalType": "string",
          "name": "uri",
          "type": "string"
        }
      ],
      "name": "mint",
      "outputs": [
        {
          "internalType": "uint256",
          "name": "",
          "type": "uint256"
        }
      ],
      "stateMutability": "nonpayable",
      "type": "function"
    },
    {
      "inputs": [
        {
          "internalType": "uint256",
          "name": "tokenId",
          "type": "uint256"
        }
      ],
      "name": "tokenURI",
      "outputs": [
        {
          "internalType": "string",
          "name": "",
          "type": "string"
        }
      ],
      "stateMutability": "view",
      "type": "function",
      "constant": true
    },
    {
      "inputs": [
        {
          "internalType": "address",
          "name": "market",
          "type": "address"
        }
      ],
      "name": "setMarketplace",
      "outputs": [],
      "stateMutability": "nonpayable",
      "type": "function"
    }
  ],
  "bytecode": "0x60806040523480156200001157600080fd5b506040518060400160405280600881526020017f417274546f6b656e0000000000000000000000000000000000000000000000008152506040518060400160405280600481526020017f4152544b00000000000000000000000000000000000000000000000000000000815250816000908051906020019062000096929190620000b8565b508060019080519060200190620000af929190620000b8565b505050620001cd565b828054620000c69062000197565b90600052602060002090601f016020900481019282620000ea576000855562000136565b82601f106200010557805160ff191683800117855562000136565b8280016001018555821562000136579182015b828111156200013557825182559160200191906001019062000118565b5b50905062000145919062000149565b5090565b5b80821115620001645760008160009055506001016200014a565b5090565b7f4e487b7100000000000000000000000000000000000000000000000000000000600052602260045260246000fd5b60006002820490506001821680620001b057607f821691505b60208210811415620001c757620001c662000168565b5b50919050565b61315b80620001dd6000396000f3fe608060405234801561001057600080fd5b506004361061012c5760003560e01c80636352211e116100ad578063abc8c7af11610071578063abc8c7af14610369578063b88d4fde14610387578063c87b56dd146103a3578063d85d3d27146103d3578063e985e9c5146104035761012c565b80636352211e146102b357806370a08231146102e357806373ad6c2d1461031357806395d89b411461032f578063a22cb4651461034d5761012c565b806318160ddd116100f457806318160ddd146101fd57806323b872dd1461021b5780632f745c591461023757806342842e0e146102675780634f6ccce7146102835761012c565b806301ffc9a71461013157806306fdde0314610161578063081812fc1461017f578063095ea7b3146101af57806317b47cc4146101cb575b600080fd5b61014b60048036038101906101469190611f9d565b610433565b6040516101589190611fe5565b60405180910390f35b6101696104ad565b6040516101769190612099565b60405180910390f35b610199600480360381019061019491906120f1565b61053f565b6040516101a6919061215f565b60405180910390f35b6101c960048036038101906101c491906121a6565b6105c4565b005b6101e560048036038101906101e091906120f1565b6106dc565b6040516101f4939291906121f5565b60405180910390f35b6102056107ae565b6040516102129190612233565b60405180910390f35b6102356004803603810190610230919061224e565b6107bb565b005b610251600480360381019061024c91906121a6565b61081b565b60405161025e9190612233565b60405180910390f35b610281600480360381019061027c919061224e565b6108c0565b005b61029d600480360381019061029891906120f1565b6108e0565b6040516102aa9190612233565b60405180910390f35b6102cd60048036038101906102c891906120f1565b610951565b6040516102da919061215f565b60405180910390f35b6102fd60048036038101906102f891906122a1565b610a03565b60405161030a9190612233565b60405180910390f35b61032d600480360381019061032891906122a1565b610abb565b005b610337610aff565b6040516103449190612099565b60405180910390f35b610367600480360381019061036291906122fa565b610b91565b005b610371610ba7565b60405161037e919061215f565b60405180910390f35b6103a1600480360381019061039c919061246f565b610bcd565b005b6103bd60048036038101906103b891906120f1565b610c2f565b6040516103ca9190612099565b60405180910390f35b6103ed60048036038101906103e89190612593565b610d1f565b6040516103fa9190612233565b60405180910390f35b61041d600480360381019061041891906125dc565b610e2d565b60405161042a9190611fe5565b60405180910390f35b60007f780e9d63000000000000000000000000000000000000000000000000000000007bffffffffffffffffffffffffffffffffffffffffffffffffffffffff1916827bffffffffffffffffffffffffffffffffffffffffffffffffffffffff191614806104a657506104a582610ec1565b5b9050919050565b6060600080546104bc9061264b565b80601f01602080910402602001604051908101604052809291908181526020018280546104e89061264b565b80156105355780601f1061050a57610100808354040283529160200191610535565b820191906000526020600020905b81548152906001019060200180831161051857829003601f168201915b5050505050905090565b600061054a82610fa3565b610589576040517f08c379a0000000000000000000000000000000000000000000000000000000008152600401610580906126ef565b60405180910390fd5b6004600083815260200190815260200160002060009054906101000a900473ffffffffffffffffffffffffffffffffffffffff169050919050565b60006105cf82610951565b90508073ffffffffffffffffffffffffffffffffffffffff168373ffffffffffffffffffffffffffffffffffffffff161415610640576040517f08c379a000000000000000000000000000000000000000000000000000000000815260040161063790612781565b60405180910390fd5b8073ffffffffffffffffffffffffffffffffffffffff1661065f61100f565b73ffffffffffffffffffffffffffffffffffffffff16148061068e575061068d8161068861100f565b610e2d565b5b6106cd576040517f08c379a00000000000000000000000000000000000000000000000000000000081526004016106c490612813565b60405180910390fd5b6106d78383611017565b505050565b600c6020528060005260406000206000915090508060000154908060010160009054906101000a900473ffffffffffffffffffffffffffffffffffffffff169080600201805461072b9061264b565b80601f01602080910402602001604051908101604052809291908181526020018280546107579061264b565b80156107a45780601f10610779576101008083540402835291602001916107a4565b820191906000526020600020905b81548152906001019060200180831161078757829003601f168201915b5050505050905083565b6000600880549050905090565b6107cc6107c661100f565b826110d0565b61080b576040517f08c379a0000000000000000000000000000000000000000000000000000000008152600401610802906128a5565b60405180910390fd5b6108168383836111ae565b505050565b600061082683610a03565b8210610867576040517f08c379a000000000000000000000000000000000000000000000000000000000815260040161085e90612937565b60405180910390fd5b600660008473ffffffffffffffffffffffffffffffffffffffff1673ffffffffffffffffffffffffffffffffffffffff168152602001908152602001600020600083815260200190815260200160002054905092915050565b6108db83838360405180602001604052806000815250610bcd565b505050565b60006108ea6107ae565b821061092b576040517f08c379a0000000000000000000000000000000000000000000000000000000008152600401610922906129c9565b60405180910390fd5b6008828154811061093f5761093e6129e9565b5b90600052602060002001549050919050565b6000806002600084815260200190815260200160002060009054906101000a900473ffffffffffffffffffffffffffffffffffffffff169050600073ffffffffffffffffffffffffffffffffffffffff168173ffffffffffffffffffffffffffffffffffffffff1614156109fa576040517f08c379a00000000000000000000000000000000000000000000000000000000081526004016109f190612a8a565b60405180910390fd5b80915050919050565b60008073ffffffffffffffffffffffffffffffffffffffff168273ffffffffffffffffffffffffffffffffffffffff161415610a74576040517f08c379a0000000000000000000000000000000000000000000000000000000008152600401610a6b90612b1c565b60405180910390fd5b600360008373ffffffffffffffffffffffffffffffffffffffff1673ffffffffffffffffffffffffffffffffffffffff168152602001908152602001600020549050919050565b80600b60006101000a81548173ffffffffffffffffffffffffffffffffffffffff021916908373ffffffffffffffffffffffffffffffffffffffff16021790555050565b606060018054610b0e9061264b565b80601f0160208091040260200160405190810160405280929190818152602001828054610b3a9061264b565b8015610b875780601f10610b5c57610100808354040283529160200191610b87565b820191906000526020600020905b815481529060010190602001808311610b6a57829003601f168201915b5050505050905090565b610ba3610b9c61100f565b8383611415565b5050565b600b60009054906101000a900473ffffffffffffffffffffffffffffffffffffffff1681565b610bde610bd861100f565b836110d0565b610c1d576040517f08c379a0000000000000000000000000000000000000000000000000000000008152600401610c14906128a5565b60405180910390fd5b610c2984848484611582565b50505050565b6060610c3a82610fa3565b610c79576040517f08c379a0000000000000000000000000000000000000000000000000000000008152600401610c7090612bae565b60405180910390fd5b600c60008381526020019081526020016000206002018054610c9a9061264b565b80601f0160208091040260200160405190810160405280929190818152602001828054610cc69061264b565b8015610d135780601f10610ce857610100808354040283529160200191610d13565b820191906000526020600020905b815481529060010190602001808311610cf657829003601f168201915b50505050509050919050565b6000610d2b600a6115de565b6000610d37600a6115f4565b9050610d433382611602565b610d6f600b60009054906101000a900473ffffffffffffffffffffffffffffffffffffffff16826105c4565b60405180606001604052808281526020013373ffffffffffffffffffffffffffffffffffffffff16815260200184815250600c60008381526020019081526020016000206000820151816000015560208201518160010160006101000a81548173ffffffffffffffffffffffffffffffffffffffff021916908373ffffffffffffffffffffffffffffffffffffffff1602179055506040820151816002019080519060200190610e20929190611e8e565b5090505080915050919050565b6000600560008473ffffffffffffffffffffffffffffffffffffffff1673ffffffffffffffffffffffffffffffffffffffff16815260200190815260200160002060008373ffffffffffffffffffffffffffffffffffffffff1673ffffffffffffffffffffffffffffffffffffffff16815260200190815260200160002060009054906101000a900460ff16905092915050565b60007f80ac58cd000000000000000000000000000000000000000000000000000000007bffffffffffffffffffffffffffffffffffffffffffffffffffffffff1916827bffffffffffffffffffffffffffffffffffffffffffffffffffffffff19161480610f8c57507f5b5e139f000000000000000000000000000000000000000000000000000000007bffffffffffffffffffffffffffffffffffffffffffffffffffffffff1916827bffffffffffffffffffffffffffffffffffffffffffffffffffffffff1916145b80610f9c5750610f9b82611620565b5b9050919050565b60008073ffffffffffffffffffffffffffffffffffffffff166002600084815260200190815260200160002060009054906101000a900473ffffffffffffffffffffffffffffffffffffffff1673ffffffffffffffffffffffffffffffffffffffff1614159050919050565b600033905090565b816004600083815260200190815260200160002060006101000a81548173ffffffffffffffffffffffffffffffffffffffff021916908373ffffffffffffffffffffffffffffffffffffffff160217905550808273ffffffffffffffffffffffffffffffffffffffff1661108a83610951565b73ffffffffffffffffffffffffffffffffffffffff167f8c5be1e5ebec7d5bd14f71427d1e84f3dd0314c0f7b2291e5b200ac8c7c3b92560405160405180910390a45050565b60006110db82610fa3565b61111a576040517f08c379a000000000000000000000000000000000000000000000000000000000815260040161111190612c40565b60405180910390fd5b600061112583610951565b90508073ffffffffffffffffffffffffffffffffffffffff168473ffffffffffffffffffffffffffffffffffffffff16148061119457508373ffffffffffffffffffffffffffffffffffffffff1661117c8461053f565b73ffffffffffffffffffffffffffffffffffffffff16145b806111a557506111a48185610e2d565b5b91505092915050565b8273ffffffffffffffffffffffffffffffffffffffff166111ce82610951565b73ffffffffffffffffffffffffffffffffffffffff1614611224576040517f08c379a000000000000000000000000000000000000000000000000000000000815260040161121b90612cd2565b60405180910390fd5b600073ffffffffffffffffffffffffffffffffffffffff168273ffffffffffffffffffffffffffffffffffffffff161415611294576040517f08c379a000000000000000000000000000000000000000000000000000000000815260040161128b90612d64565b60405180910390fd5b61129f83838361168a565b6112aa600082611017565b6001600360008573ffffffffffffffffffffffffffffffffffffffff1673ffffffffffffffffffffffffffffffffffffffff16815260200190815260200160002060008282546112fa9190612db3565b925050819055506001600360008473ffffffffffffffffffffffffffffffffffffffff1673ffffffffffffffffffffffffffffffffffffffff16815260200190815260200160002060008282546113519190612de7565b92505081905550816002600083815260200190815260200160002060006101000a81548173ffffffffffffffffffffffffffffffffffffffff021916908373ffffffffffffffffffffffffffffffffffffffff160217905550808273ffffffffffffffffffffffffffffffffffffffff168473ffffffffffffffffffffffffffffffffffffffff167fddf252ad1be2c89b69c2b068fc378daa952ba7f163c4a11628f55a4df523b3ef60405160405180910390a461141083838361179e565b505050565b8173ffffffffffffffffffffffffffffffffffffffff168373ffffffffffffffffffffffffffffffffffffffff161415611484576040517f08c379a000000000000000000000000000000000000000000000000000000000815260040161147b90612e89565b60405180910390fd5b80600560008573ffffffffffffffffffffffffffffffffffffffff1673ffffffffffffffffffffffffffffffffffffffff16815260200190815260200160002060008473ffffffffffffffffffffffffffffffffffffffff1673ffffffffffffffffffffffffffffffffffffffff16815260200190815260200160002060006101000a81548160ff0219169083151502179055508173ffffffffffffffffffffffffffffffffffffffff168373ffffffffffffffffffffffffffffffffffffffff167f17307eab39ab6107e8899845ad3d59bd9653f200f220920489ca2b5937696c31836040516115759190611fe5565b60405180910390a3505050565b61158d8484846111ae565b611599848484846117a3565b6115d8576040517f08c379a00000000000000000000000000000000000000000000000000000000081526004016115cf90612f1b565b60405180910390fd5b50505050565b6001816000016000828254019250508190555050565b600081600001549050919050565b61161c82826040518060200160405280600081525061192b565b5050565b60007f01ffc9a7000000000000000000000000000000000000000000000000000000007bffffffffffffffffffffffffffffffffffffffffffffffffffffffff1916827bffffffffffffffffffffffffffffffffffffffffffffffffffffffff1916149050919050565b611695838383611986565b600073ffffffffffffffffffffffffffffffffffffffff168373ffffffffffffffffffffffffffffffffffffffff1614156116d8576116d38161198b565b611717565b8173ffffffffffffffffffffffffffffffffffffffff168373ffffffffffffffffffffffffffffffffffffffff16146117165761171583826119d4565b5b5b600073ffffffffffffffffffffffffffffffffffffffff168273ffffffffffffffffffffffffffffffffffffffff16141561175a5761175581611b41565b611799565b8273ffffffffffffffffffffffffffffffffffffffff168273ffffffffffffffffffffffffffffffffffffffff1614611798576117978282611c12565b5b5b505050565b505050565b60006117c48473ffffffffffffffffffffffffffffffffffffffff16611c91565b1561191e578373ffffffffffffffffffffffffffffffffffffffff1663150b7a026117ed61100f565b8786866040518563ffffffff1660e01b815260040161180f9493929190612f90565b6020604051808303816000875af192505050801561184b57506040513d601f19601f820116820180604052508101906118489190612ff1565b60015b6118ce573d806000811461187b576040519150601f19603f3d011682016040523d82523d6000602084013e611880565b606091505b506000815114156118c6576040517f08c379a00000000000000000000000000000000000000000000000000000000081526004016118bd90612f1b565b60405180910390fd5b805181602001fd5b63150b7a0260e01b7bffffffffffffffffffffffffffffffffffffffffffffffffffffffff1916817bffffffffffffffffffffffffffffffffffffffffffffffffffffffff191614915050611923565b600190505b949350505050565b6119358383611cb4565b61194260008484846117a3565b611981576040517f08c379a000000000000000000000000000000000000000000000000000000000815260040161197890612f1b565b60405180910390fd5b505050565b505050565b6008805490506009600083815260200190815260200160002081905550600881908060018154018082558091505060019003906000526020600020016000909190919091505550565b600060016119e184610a03565b6119eb9190612db3565b9050600060076000848152602001908152602001600020549050818114611ad0576000600660008673ffffffffffffffffffffffffffffffffffffffff1673ffffffffffffffffffffffffffffffffffffffff168152602001908152602001600020600084815260200190815260200160002054905080600660008773ffffffffffffffffffffffffffffffffffffffff1673ffffffffffffffffffffffffffffffffffffffff168152602001908152602001600020600084815260200190815260200160002081905550816007600083815260200190815260200160002081905550505b6007600084815260200190815260200160002060009055600660008573ffffffffffffffffffffffffffffffffffffffff1673ffffffffffffffffffffffffffffffffffffffff16815260200190815260200160002060008381526020019081526020016000206000905550505050565b60006001600880549050611b559190612db3565b9050600060096000848152602001908152602001600020549050600060088381548110611b8557611b846129e9565b5b906000526020600020015490508060088381548110611ba757611ba66129e9565b5b906000526020600020018190555081600960008381526020019081526020016000208190555060096000858152602001908152602001600020600090556008805480611bf657611bf561301e565b5b6001900381819060005260206000200160009055905550505050565b6000611c1d83610a03565b905081600660008573ffffffffffffffffffffffffffffffffffffffff1673ffffffffffffffffffffffffffffffffffffffff168152602001908152602001600020600083815260200190815260200160002081905550806007600084815260200190815260200160002081905550505050565b6000808273ffffffffffffffffffffffffffffffffffffffff163b119050919050565b600073ffffffffffffffffffffffffffffffffffffffff168273ffffffffffffffffffffffffffffffffffffffff161415611d24576040517f08c379a0000000000000000000000000000000000000000000000000000000008152600401611d1b90613099565b60405180910390fd5b611d2d81610fa3565b15611d6d576040517f08c379a0000000000000000000000000000000000000000000000000000000008152600401611d6490613105565b60405180910390fd5b611d796000838361168a565b6001600360008473ffffffffffffffffffffffffffffffffffffffff1673ffffffffffffffffffffffffffffffffffffffff1681526020019081526020016000206000828254611dc99190612de7565b92505081905550816002600083815260200190815260200160002060006101000a81548173ffffffffffffffffffffffffffffffffffffffff021916908373ffffffffffffffffffffffffffffffffffffffff160217905550808273ffffffffffffffffffffffffffffffffffffffff16600073ffffffffffffffffffffffffffffffffffffffff167fddf252ad1be2c89b69c2b068fc378daa952ba7f163c4a11628f55a4df523b3ef60405160405180910390a4611e8a6000838361179e565b5050565b828054611e9a9061264b565b90600052602060002090601f016020900481019282611ebc5760008555611f03565b82601f10611ed557805160ff1916838001178555611f03565b82800160010185558215611f03579182015b82811115611f02578251825591602001919060010190611ee7565b5b509050611f109190611f14565b5090565b5b80821115611f2d576000816000905550600101611f15565b5090565b6000604051905090565b600080fd5b600080fd5b60007fffffffff0000000000000000000000000000000000000000000000000000000082169050919050565b611f7a81611f45565b8114611f8557600080fd5b50565b600081359050611f9781611f71565b92915050565b600060208284031215611fb357611fb2611f3b565b5b6000611fc184828501611f88565b91505092915050565b60008115159050919050565b611fdf81611fca565b82525050565b6000602082019050611ffa6000830184611fd6565b92915050565b600081519050919050565b600082825260208201905092915050565b60005b8381101561203a57808201518184015260208101905061201f565b83811115612049576000848401525b50505050565b6000601f19601f8301169050919050565b600061206b82612000565b612075818561200b565b935061208581856020860161201c565b61208e8161204f565b840191505092915050565b600060208201905081810360008301526120b38184612060565b905092915050565b6000819050919050565b6120ce816120bb565b81146120d957600080fd5b50565b6000813590506120eb816120c5565b92915050565b60006020828403121561210757612106611f3b565b5b6000612115848285016120dc565b91505092915050565b600073ffffffffffffffffffffffffffffffffffffffff82169050919050565b60006121498261211e565b9050919050565b6121598161213e565b82525050565b60006020820190506121746000830184612150565b92915050565b6121838161213e565b811461218e57600080fd5b50565b6000813590506121a08161217a565b92915050565b600080604083850312156121bd576121bc611f3b565b5b60006121cb85828601612191565b92505060206121dc858286016120dc565b9150509250929050565b6121ef816120bb565b82525050565b600060608201905061220a60008301866121e6565b6122176020830185612150565b81810360408301526122298184612060565b9050949350505050565b600060208201905061224860008301846121e6565b92915050565b60008060006060848603121561226757612266611f3b565b5b600061227586828701612191565b935050602061228686828701612191565b9250506040612297868287016120dc565b9150509250925092565b6000602082840312156122b7576122b6611f3b565b5b60006122c584828501612191565b91505092915050565b6122d781611fca565b81146122e257600080fd5b50565b6000813590506122f4816122ce565b92915050565b6000806040838503121561231157612310611f3b565b5b600061231f85828601612191565b9250506020612330858286016122e5565b9150509250929050565b600080fd5b600080fd5b7f4e487b7100000000000000000000000000000000000000000000000000000000600052604160045260246000fd5b61237c8261204f565b810181811067ffffffffffffffff8211171561239b5761239a612344565b5b80604052505050565b60006123ae611f31565b90506123ba8282612373565b919050565b600067ffffffffffffffff8211156123da576123d9612344565b5b6123e38261204f565b9050602081019050919050565b82818337600083830152505050565b600061241261240d846123bf565b6123a4565b90508281526020810184848401111561242e5761242d61233f565b5b6124398482856123f0565b509392505050565b600082601f8301126124565761245561233a565b5b81356124668482602086016123ff565b91505092915050565b6000806000806080858703121561248957612488611f3b565b5b600061249787828801612191565b94505060206124a887828801612191565b93505060406124b9878288016120dc565b925050606085013567ffffffffffffffff8111156124da576124d9611f40565b5b6124e687828801612441565b91505092959194509250565b600067ffffffffffffffff82111561250d5761250c612344565b5b6125168261204f565b9050602081019050919050565b6000612536612531846124f2565b6123a4565b9050828152602081018484840111156125525761255161233f565b5b61255d8482856123f0565b509392505050565b600082601f83011261257a5761257961233a565b5b813561258a848260208601612523565b91505092915050565b6000602082840312156125a9576125a8611f3b565b5b600082013567ffffffffffffffff8111156125c7576125c6611f40565b5b6125d384828501612565565b91505092915050565b600080604083850312156125f3576125f2611f3b565b5b600061260185828601612191565b925050602061261285828601612191565b9150509250929050565b7f4e487b7100000000000000000000000000000000000000000000000000000000600052602260045260246000fd5b6000600282049050600182168061266357607f821691505b602082108114156126775761267661261c565b5b50919050565b7f4552433732313a20617070726f76656420717565727920666f72206e6f6e657860008201527f697374656e7420746f6b656e0000000000000000000000000000000000000000602082015250565b60006126d9602c8361200b565b91506126e48261267d565b604082019050919050565b60006020820190508181036000830152612708816126cc565b9050919050565b7f4552433732313a20617070726f76616c20746f2063757272656e74206f776e6560008201527f7200000000000000000000000000000000000000000000000000000000000000602082015250565b600061276b60218361200b565b91506127768261270f565b604082019050919050565b6000602082019050818103600083015261279a8161275e565b9050919050565b7f4552433732313a20617070726f76652063616c6c6572206973206e6f74206f7760008201527f6e6572206e6f7220617070726f76656420666f7220616c6c0000000000000000602082015250565b60006127fd60388361200b565b9150612808826127a1565b604082019050919050565b6000602082019050818103600083015261282c816127f0565b9050919050565b7f4552433732313a207472616e736665722063616c6c6572206973206e6f74206f60008201527f776e6572206e6f7220617070726f766564000000000000000000000000000000602082015250565b600061288f60318361200b565b915061289a82612833565b604082019050919050565b600060208201905081810360008301526128be81612882565b9050919050565b7f455243373231456e756d657261626c653a206f776e657220696e646578206f7560008201527f74206f6620626f756e6473000000000000000000000000000000000000000000602082015250565b6000612921602b8361200b565b915061292c826128c5565b604082019050919050565b6000602082019050818103600083015261295081612914565b9050919050565b7f455243373231456e756d657261626c653a20676c6f62616c20696e646578206f60008201527f7574206f6620626f756e64730000000000000000000000000000000000000000602082015250565b60006129b3602c8361200b565b91506129be82612957565b604082019050919050565b600060208201905081810360008301526129e2816129a6565b9050919050565b7f4e487b7100000000000000000000000000000000000000000000000000000000600052603260045260246000fd5b7f4552433732313a206f776e657220717565727920666f72206e6f6e657869737460008201527f656e7420746f6b656e0000000000000000000000000000000000000000000000602082015250565b6000612a7460298361200b565b9150612a7f82612a18565b604082019050919050565b60006020820190508181036000830152612aa381612a67565b9050919050565b7f4552433732313a2062616c616e636520717565727920666f7220746865207a6560008201527f726f206164647265737300000000000000000000000000000000000000000000602082015250565b6000612b06602a8361200b565b9150612b1182612aaa565b604082019050919050565b60006020820190508181036000830152612b3581612af9565b9050919050565b7f45524337323155524953746f726167653a2055524920717565727920666f722060008201527f6e6f6e6578697374656e7420746f6b656e000000000000000000000000000000602082015250565b6000612b9860318361200b565b9150612ba382612b3c565b604082019050919050565b60006020820190508181036000830152612bc781612b8b565b9050919050565b7f4552433732313a206f70657261746f7220717565727920666f72206e6f6e657860008201527f697374656e7420746f6b656e0000000000000000000000000000000000000000602082015250565b6000612c2a602c8361200b565b9150612c3582612bce565b604082019050919050565b60006020820190508181036000830152612c5981612c1d565b9050919050565b7f4552433732313a207472616e736665722066726f6d20696e636f72726563742060008201527f6f776e6572000000000000000000000000000000000000000000000000000000602082015250565b6000612cbc60258361200b565b9150612cc782612c60565b604082019050919050565b60006020820190508181036000830152612ceb81612caf565b9050919050565b7f4552433732313a207472616e7366657220746f20746865207a65726f2061646460008201527f7265737300000000000000000000000000000000000000000000000000000000602082015250565b6000612d4e60248361200b565b9150612d5982612cf2565b604082019050919050565b60006020820190508181036000830152612d7d81612d41565b9050919050565b7f4e487b7100000000000000000000000000000000000000000000000000000000600052601160045260246000fd5b6000612dbe826120bb565b9150612dc9836120bb565b925082821015612ddc57612ddb612d84565b5b828203905092915050565b6000612df2826120bb565b9150612dfd836120bb565b9250827fffffffffffffffffffffffffffffffffffffffffffffffffffffffffffffffff03821115612e3257612e31612d84565b5b828201905092915050565b7f4552433732313a20617070726f766520746f2063616c6c657200000000000000600082015250565b6000612e7360198361200b565b9150612e7e82612e3d565b602082019050919050565b60006020820190508181036000830152612ea281612e66565b9050919050565b7f4552433732313a207472616e7366657220746f206e6f6e20455243373231526560008201527f63656976657220696d706c656d656e7465720000000000000000000000000000602082015250565b6000612f0560328361200b565b9150612f1082612ea9565b604082019050919050565b60006020820190508181036000830152612f3481612ef8565b9050919050565b600081519050919050565b600082825260208201905092915050565b6000612f6282612f3b565b612f6c8185612f46565b9350612f7c81856020860161201c565b612f858161204f565b840191505092915050565b6000608082019050612fa56000830187612150565b612fb26020830186612150565b612fbf60408301856121e6565b8181036060830152612fd18184612f57565b905095945050505050565b600081519050612feb81611f71565b92915050565b60006020828403121561300757613006611f3b565b5b600061301584828501612fdc565b91505092915050565b7f4e487b7100000000000000000000000000000000000000000000000000000000600052603160045260246000fd5b7f4552433732313a206d696e7420746f20746865207a65726f2061646472657373600082015250565b600061308360208361200b565b915061308e8261304d565b602082019050919050565b600060208201905081810360008301526130b281613076565b9050919050565b7f4552433732313a20746f6b656e20616c7265616479206d696e74656400000000600082015250565b60006130ef601c8361200b565b91506130fa826130b9565b602082019050919050565b6000602082019050818103600083015261311e816130e2565b905091905056fea2646970667358221220fa3c405c6a1a73e4c6f61dbcdf2b3ed23dfe7b13e724cdc7b0d821b410e29ade64736f6c634300080c0033",
  "immutableReferences": {},
  "source": "// SPDX-License-Identifier: MIT\r\npragma solidity ^0.8.0;\r\n\r\nimport \"@openzeppelin/contracts/token/ERC721/ERC721.sol\";\r\nimport \"@openzeppelin/contracts/token/ERC721/extensions/ERC721Enumerable.sol\";\r\nimport \"@openzeppelin/contracts/token/ERC721/extensions/ERC721URIStorage.sol\";\r\nimport \"@openzeppelin/contracts/utils/Counters.sol\";\r\n\r\ncontract ArtToken is ERC721Enumerable {\r\n    using Counters for Counters.Counter;\r\n\r\n    Counters.Counter private _tokenIds;\r\n    address public marketplace;\r\n\r\n    struct Item {\r\n        uint256 id;\r\n        address creator;\r\n        string uri; //metadata url\r\n    }\r\n\r\n    mapping(uint256 => Item) public Items; //id => Item\r\n\r\n    constructor() ERC721(\"ArtToken\", \"ARTK\") {}\r\n\r\n    function mint(string memory uri) public returns (uint256) {\r\n        _tokenIds.increment();\r\n        uint256 newItemId = _tokenIds.current();\r\n        _safeMint(msg.sender, newItemId);\r\n        approve(marketplace, newItemId);\r\n\r\n        Items[newItemId] = Item({id: newItemId, creator: msg.sender, uri: uri});\r\n\r\n        return newItemId;\r\n    }\r\n\r\n    function tokenURI(uint256 tokenId)\r\n        public\r\n        view\r\n        override\r\n        returns (string memory)\r\n    {\r\n        require(\r\n            _exists(tokenId),\r\n            \"ERC721URIStorage: URI query for nonexistent token\"\r\n        );\r\n        return Items[tokenId].uri;\r\n    }\r\n\r\n    function setMarketplace(address market) public {\r\n        //require(msg.sender ==);\r\n        marketplace = market;\r\n    }\r\n}\r\n",
  "sourcePath": "C:\\Users\\LeeSeongHyun\\Desktop\\NFT-Market\\contracts\\ArtToken.sol",
  "compiler": {
    "name": "solc",
    "version": "0.8.12+commit.f00d7308.Emscripten.clang"
  },
  "schemaVersion": "3.4.5",
  "updatedAt": "2022-02-27T04:05:33.907Z",
  "networkType": "ethereum",
  "devdoc": {
    "kind": "dev",
    "methods": {
      "approve(address,uint256)": {
        "details": "See {IERC721-approve}."
      },
      "balanceOf(address)": {
        "details": "See {IERC721-balanceOf}."
      },
      "getApproved(uint256)": {
        "details": "See {IERC721-getApproved}."
      },
      "isApprovedForAll(address,address)": {
        "details": "See {IERC721-isApprovedForAll}."
      },
      "name()": {
        "details": "See {IERC721Metadata-name}."
      },
      "ownerOf(uint256)": {
        "details": "See {IERC721-ownerOf}."
      },
      "safeTransferFrom(address,address,uint256)": {
        "details": "See {IERC721-safeTransferFrom}."
      },
      "safeTransferFrom(address,address,uint256,bytes)": {
        "details": "See {IERC721-safeTransferFrom}."
      },
      "setApprovalForAll(address,bool)": {
        "details": "See {IERC721-setApprovalForAll}."
      },
      "supportsInterface(bytes4)": {
        "details": "See {IERC165-supportsInterface}."
      },
      "symbol()": {
        "details": "See {IERC721Metadata-symbol}."
      },
      "tokenByIndex(uint256)": {
        "details": "See {IERC721Enumerable-tokenByIndex}."
      },
      "tokenOfOwnerByIndex(address,uint256)": {
        "details": "See {IERC721Enumerable-tokenOfOwnerByIndex}."
      },
      "tokenURI(uint256)": {
        "details": "See {IERC721Metadata-tokenURI}."
      },
      "totalSupply()": {
        "details": "See {IERC721Enumerable-totalSupply}."
      },
      "transferFrom(address,address,uint256)": {
        "details": "See {IERC721-transferFrom}."
      }
    },
    "version": 1
  },
  "userdoc": {
    "kind": "user",
    "methods": {},
    "version": 1
  }
}